{
  "contractName": "Certification",
  "abi": [
    {
      "inputs": [],
      "stateMutability": "nonpayable",
      "type": "constructor"
    },
    {
      "anonymous": false,
      "inputs": [
        {
          "indexed": true,
          "internalType": "address",
          "name": "owner",
          "type": "address"
        },
        {
          "indexed": true,
          "internalType": "address",
          "name": "approved",
          "type": "address"
        },
        {
          "indexed": true,
          "internalType": "uint256",
          "name": "tokenId",
          "type": "uint256"
        }
      ],
      "name": "Approval",
      "type": "event"
    },
    {
      "anonymous": false,
      "inputs": [
        {
          "indexed": true,
          "internalType": "address",
          "name": "owner",
          "type": "address"
        },
        {
          "indexed": true,
          "internalType": "address",
          "name": "operator",
          "type": "address"
        },
        {
          "indexed": false,
          "internalType": "bool",
          "name": "approved",
          "type": "bool"
        }
      ],
      "name": "ApprovalForAll",
      "type": "event"
    },
    {
      "anonymous": false,
      "inputs": [
        {
          "indexed": false,
          "internalType": "uint256",
          "name": "certificateId",
          "type": "uint256"
        }
      ],
      "name": "CertificateClosed",
      "type": "event"
    },
    {
      "anonymous": false,
      "inputs": [
        {
          "indexed": false,
          "internalType": "uint256",
          "name": "certificateId",
          "type": "uint256"
        }
      ],
      "name": "CertificateCreated",
      "type": "event"
    },
    {
      "anonymous": false,
      "inputs": [
        {
          "indexed": false,
          "internalType": "uint256",
          "name": "certificateId",
          "type": "uint256"
        }
      ],
      "name": "CertificatePublished",
      "type": "event"
    },
    {
      "anonymous": false,
      "inputs": [
        {
          "indexed": false,
          "internalType": "address",
          "name": "student",
          "type": "address"
        },
        {
          "indexed": false,
          "internalType": "uint256",
          "name": "certificateId",
          "type": "uint256"
        }
      ],
      "name": "NewCertificateNFTMinted",
      "type": "event"
    },
    {
      "anonymous": false,
      "inputs": [
        {
          "indexed": true,
          "internalType": "bytes32",
          "name": "role",
          "type": "bytes32"
        },
        {
          "indexed": true,
          "internalType": "bytes32",
          "name": "previousAdminRole",
          "type": "bytes32"
        },
        {
          "indexed": true,
          "internalType": "bytes32",
          "name": "newAdminRole",
          "type": "bytes32"
        }
      ],
      "name": "RoleAdminChanged",
      "type": "event"
    },
    {
      "anonymous": false,
      "inputs": [
        {
          "indexed": true,
          "internalType": "bytes32",
          "name": "role",
          "type": "bytes32"
        },
        {
          "indexed": true,
          "internalType": "address",
          "name": "account",
          "type": "address"
        },
        {
          "indexed": true,
          "internalType": "address",
          "name": "sender",
          "type": "address"
        }
      ],
      "name": "RoleGranted",
      "type": "event"
    },
    {
      "anonymous": false,
      "inputs": [
        {
          "indexed": true,
          "internalType": "bytes32",
          "name": "role",
          "type": "bytes32"
        },
        {
          "indexed": true,
          "internalType": "address",
          "name": "account",
          "type": "address"
        },
        {
          "indexed": true,
          "internalType": "address",
          "name": "sender",
          "type": "address"
        }
      ],
      "name": "RoleRevoked",
      "type": "event"
    },
    {
      "anonymous": false,
      "inputs": [
        {
          "indexed": true,
          "internalType": "address",
          "name": "from",
          "type": "address"
        },
        {
          "indexed": true,
          "internalType": "address",
          "name": "to",
          "type": "address"
        },
        {
          "indexed": true,
          "internalType": "uint256",
          "name": "tokenId",
          "type": "uint256"
        }
      ],
      "name": "Transfer",
      "type": "event"
    },
    {
      "inputs": [],
      "name": "DEFAULT_ADMIN_ROLE",
      "outputs": [
        {
          "internalType": "bytes32",
          "name": "",
          "type": "bytes32"
        }
      ],
      "stateMutability": "view",
      "type": "function",
      "constant": true
    },
    {
      "inputs": [],
      "name": "STUDENT",
      "outputs": [
        {
          "internalType": "bytes32",
          "name": "",
          "type": "bytes32"
        }
      ],
      "stateMutability": "view",
      "type": "function",
      "constant": true
    },
    {
      "inputs": [],
      "name": "TUTOR",
      "outputs": [
        {
          "internalType": "bytes32",
          "name": "",
          "type": "bytes32"
        }
      ],
      "stateMutability": "view",
      "type": "function",
      "constant": true
    },
    {
      "inputs": [
        {
          "internalType": "address",
          "name": "to",
          "type": "address"
        },
        {
          "internalType": "uint256",
          "name": "tokenId",
          "type": "uint256"
        }
      ],
      "name": "approve",
      "outputs": [],
      "stateMutability": "nonpayable",
      "type": "function"
    },
    {
      "inputs": [
        {
          "internalType": "address",
          "name": "owner",
          "type": "address"
        }
      ],
      "name": "balanceOf",
      "outputs": [
        {
          "internalType": "uint256",
          "name": "",
          "type": "uint256"
        }
      ],
      "stateMutability": "view",
      "type": "function",
      "constant": true
    },
    {
      "inputs": [
        {
          "internalType": "uint256",
          "name": "",
          "type": "uint256"
        }
      ],
      "name": "certificateIds",
      "outputs": [
        {
          "internalType": "uint256",
          "name": "",
          "type": "uint256"
        }
      ],
      "stateMutability": "view",
      "type": "function",
      "constant": true
    },
    {
      "inputs": [
        {
          "internalType": "uint256",
          "name": "",
          "type": "uint256"
        }
      ],
      "name": "certificates",
      "outputs": [
        {
          "internalType": "uint256",
          "name": "id",
          "type": "uint256"
        },
        {
          "internalType": "string",
          "name": "title",
          "type": "string"
        },
        {
          "internalType": "address",
          "name": "issuedBy",
          "type": "address"
        },
        {
          "internalType": "uint256",
          "name": "issuedDate",
          "type": "uint256"
        },
        {
          "internalType": "uint256",
          "name": "validDays",
          "type": "uint256"
        },
        {
          "internalType": "enum Certification.Status",
          "name": "status",
          "type": "uint8"
        }
      ],
      "stateMutability": "view",
      "type": "function",
      "constant": true
    },
    {
      "inputs": [],
      "name": "certificatesCreated",
      "outputs": [
        {
          "internalType": "uint256",
          "name": "",
          "type": "uint256"
        }
      ],
      "stateMutability": "view",
      "type": "function",
      "constant": true
    },
    {
      "inputs": [
        {
          "internalType": "address",
          "name": "",
          "type": "address"
        },
        {
          "internalType": "uint256",
          "name": "",
          "type": "uint256"
        }
      ],
      "name": "certificatesHolders",
      "outputs": [
        {
          "internalType": "uint256",
          "name": "",
          "type": "uint256"
        }
      ],
      "stateMutability": "view",
      "type": "function",
      "constant": true
    },
    {
      "inputs": [
        {
          "internalType": "uint256",
          "name": "tokenId",
          "type": "uint256"
        }
      ],
      "name": "getApproved",
      "outputs": [
        {
          "internalType": "address",
          "name": "",
          "type": "address"
        }
      ],
      "stateMutability": "view",
      "type": "function",
      "constant": true
    },
    {
      "inputs": [
        {
          "internalType": "bytes32",
          "name": "role",
          "type": "bytes32"
        }
      ],
      "name": "getRoleAdmin",
      "outputs": [
        {
          "internalType": "bytes32",
          "name": "",
          "type": "bytes32"
        }
      ],
      "stateMutability": "view",
      "type": "function",
      "constant": true
    },
    {
      "inputs": [
        {
          "internalType": "bytes32",
          "name": "role",
          "type": "bytes32"
        },
        {
          "internalType": "address",
          "name": "account",
          "type": "address"
        }
      ],
      "name": "grantRole",
      "outputs": [],
      "stateMutability": "nonpayable",
      "type": "function"
    },
    {
      "inputs": [
        {
          "internalType": "bytes32",
          "name": "role",
          "type": "bytes32"
        },
        {
          "internalType": "address",
          "name": "account",
          "type": "address"
        }
      ],
      "name": "hasRole",
      "outputs": [
        {
          "internalType": "bool",
          "name": "",
          "type": "bool"
        }
      ],
      "stateMutability": "view",
      "type": "function",
      "constant": true
    },
    {
      "inputs": [
        {
          "internalType": "address",
          "name": "owner",
          "type": "address"
        },
        {
          "internalType": "address",
          "name": "operator",
          "type": "address"
        }
      ],
      "name": "isApprovedForAll",
      "outputs": [
        {
          "internalType": "bool",
          "name": "",
          "type": "bool"
        }
      ],
      "stateMutability": "view",
      "type": "function",
      "constant": true
    },
    {
      "inputs": [],
      "name": "name",
      "outputs": [
        {
          "internalType": "string",
          "name": "",
          "type": "string"
        }
      ],
      "stateMutability": "view",
      "type": "function",
      "constant": true
    },
    {
      "inputs": [
        {
          "internalType": "uint256",
          "name": "tokenId",
          "type": "uint256"
        }
      ],
      "name": "ownerOf",
      "outputs": [
        {
          "internalType": "address",
          "name": "",
          "type": "address"
        }
      ],
      "stateMutability": "view",
      "type": "function",
      "constant": true
    },
    {
      "inputs": [
        {
          "internalType": "bytes32",
          "name": "role",
          "type": "bytes32"
        },
        {
          "internalType": "address",
          "name": "account",
          "type": "address"
        }
      ],
      "name": "renounceRole",
      "outputs": [],
      "stateMutability": "nonpayable",
      "type": "function"
    },
    {
      "inputs": [
        {
          "internalType": "bytes32",
          "name": "role",
          "type": "bytes32"
        },
        {
          "internalType": "address",
          "name": "account",
          "type": "address"
        }
      ],
      "name": "revokeRole",
      "outputs": [],
      "stateMutability": "nonpayable",
      "type": "function"
    },
    {
      "inputs": [
        {
          "internalType": "address",
          "name": "from",
          "type": "address"
        },
        {
          "internalType": "address",
          "name": "to",
          "type": "address"
        },
        {
          "internalType": "uint256",
          "name": "tokenId",
          "type": "uint256"
        }
      ],
      "name": "safeTransferFrom",
      "outputs": [],
      "stateMutability": "nonpayable",
      "type": "function"
    },
    {
      "inputs": [
        {
          "internalType": "address",
          "name": "from",
          "type": "address"
        },
        {
          "internalType": "address",
          "name": "to",
          "type": "address"
        },
        {
          "internalType": "uint256",
          "name": "tokenId",
          "type": "uint256"
        },
        {
          "internalType": "bytes",
          "name": "_data",
          "type": "bytes"
        }
      ],
      "name": "safeTransferFrom",
      "outputs": [],
      "stateMutability": "nonpayable",
      "type": "function"
    },
    {
      "inputs": [
        {
          "internalType": "address",
          "name": "operator",
          "type": "address"
        },
        {
          "internalType": "bool",
          "name": "approved",
          "type": "bool"
        }
      ],
      "name": "setApprovalForAll",
      "outputs": [],
      "stateMutability": "nonpayable",
      "type": "function"
    },
    {
      "inputs": [],
      "name": "svgHeadCode",
      "outputs": [
        {
          "internalType": "string",
          "name": "",
          "type": "string"
        }
      ],
      "stateMutability": "view",
      "type": "function",
      "constant": true
    },
    {
      "inputs": [],
      "name": "symbol",
      "outputs": [
        {
          "internalType": "string",
          "name": "",
          "type": "string"
        }
      ],
      "stateMutability": "view",
      "type": "function",
      "constant": true
    },
    {
      "inputs": [
        {
          "internalType": "uint256",
          "name": "tokenId",
          "type": "uint256"
        }
      ],
      "name": "tokenURI",
      "outputs": [
        {
          "internalType": "string",
          "name": "",
          "type": "string"
        }
      ],
      "stateMutability": "view",
      "type": "function",
      "constant": true
    },
    {
      "inputs": [
        {
          "internalType": "address",
          "name": "from",
          "type": "address"
        },
        {
          "internalType": "address",
          "name": "to",
          "type": "address"
        },
        {
          "internalType": "uint256",
          "name": "tokenId",
          "type": "uint256"
        }
      ],
      "name": "transferFrom",
      "outputs": [],
      "stateMutability": "nonpayable",
      "type": "function"
    },
    {
      "inputs": [
        {
          "internalType": "string",
          "name": "_title",
          "type": "string"
        },
        {
          "internalType": "address",
          "name": "_issuedBy",
          "type": "address"
        },
        {
          "internalType": "uint256",
          "name": "_validDays",
          "type": "uint256"
        }
      ],
      "name": "createCertificate",
      "outputs": [
        {
          "internalType": "uint256",
          "name": "",
          "type": "uint256"
        }
      ],
      "stateMutability": "nonpayable",
      "type": "function"
    },
    {
      "inputs": [],
      "name": "getCertificates",
      "outputs": [
        {
          "components": [
            {
              "internalType": "uint256",
              "name": "id",
              "type": "uint256"
            },
            {
              "internalType": "string",
              "name": "title",
              "type": "string"
            },
            {
              "internalType": "address",
              "name": "issuedBy",
              "type": "address"
            },
            {
              "internalType": "uint256",
              "name": "issuedDate",
              "type": "uint256"
            },
            {
              "internalType": "uint256",
              "name": "validDays",
              "type": "uint256"
            },
            {
              "internalType": "enum Certification.Status",
              "name": "status",
              "type": "uint8"
            }
          ],
          "internalType": "struct Certification.Certificate[]",
          "name": "",
          "type": "tuple[]"
        }
      ],
      "stateMutability": "view",
      "type": "function",
      "constant": true
    },
    {
      "inputs": [
        {
          "internalType": "address",
          "name": "_holder",
          "type": "address"
        }
      ],
      "name": "getCertificatesByHolder",
      "outputs": [
        {
          "components": [
            {
              "internalType": "uint256",
              "name": "id",
              "type": "uint256"
            },
            {
              "internalType": "string",
              "name": "title",
              "type": "string"
            },
            {
              "internalType": "address",
              "name": "issuedBy",
              "type": "address"
            },
            {
              "internalType": "uint256",
              "name": "issuedDate",
              "type": "uint256"
            },
            {
              "internalType": "uint256",
              "name": "validDays",
              "type": "uint256"
            },
            {
              "internalType": "enum Certification.Status",
              "name": "status",
              "type": "uint8"
            }
          ],
          "internalType": "struct Certification.Certificate[]",
          "name": "",
          "type": "tuple[]"
        },
        {
          "internalType": "uint256[]",
          "name": "",
          "type": "uint256[]"
        }
      ],
      "stateMutability": "view",
      "type": "function",
      "constant": true
    },
    {
      "inputs": [
        {
          "internalType": "address",
          "name": "_newTutor",
          "type": "address"
        }
      ],
      "name": "registerTutor",
      "outputs": [],
      "stateMutability": "nonpayable",
      "type": "function"
    },
    {
      "inputs": [
        {
          "internalType": "uint256",
          "name": "_certificateId",
          "type": "uint256"
        }
      ],
      "name": "publishCertificate",
      "outputs": [],
      "stateMutability": "nonpayable",
      "type": "function"
    },
    {
      "inputs": [
        {
          "internalType": "uint256",
          "name": "_certificateId",
          "type": "uint256"
        }
      ],
      "name": "closeCertificate",
      "outputs": [],
      "stateMutability": "nonpayable",
      "type": "function"
    },
    {
      "inputs": [
        {
          "internalType": "uint256",
          "name": "_certificateId",
          "type": "uint256"
        }
      ],
      "name": "mintCertificateNFT",
      "outputs": [
        {
          "internalType": "uint256",
          "name": "",
          "type": "uint256"
        }
      ],
      "stateMutability": "nonpayable",
      "type": "function"
    },
    {
      "inputs": [
        {
          "internalType": "address",
          "name": "_student",
          "type": "address"
        },
        {
          "internalType": "uint256",
          "name": "_certificateId",
          "type": "uint256"
        }
      ],
      "name": "verifyCertificateHolder",
      "outputs": [
        {
          "internalType": "bool",
          "name": "",
          "type": "bool"
        }
      ],
      "stateMutability": "view",
      "type": "function",
      "constant": true
    },
    {
      "inputs": [
        {
          "internalType": "bytes4",
          "name": "interfaceId",
          "type": "bytes4"
        }
      ],
      "name": "supportsInterface",
      "outputs": [
        {
          "internalType": "bool",
          "name": "",
          "type": "bool"
        }
      ],
      "stateMutability": "view",
      "type": "function",
      "constant": true
    }
  ],
  "bytecode": "0x6080604052604051806102e001604052806102a88152602001620062816102a89139600d90805190602001906200003892919062000314565b503480156200004657600080fd5b506040518060400160405280600f81526020017f4365727469666963617465204e465400000000000000000000000000000000008152506040518060400160405280600481526020017f43455254000000000000000000000000000000000000000000000000000000008152508160019080519060200190620000cb92919062000314565b508060029080519060200190620000e492919062000314565b505050620000fc6000801b336200018560201b60201c565b6200012e7f75f5675427bbe3fbe92f71e7f066dc995ebed7899f07716e842213d0a25955f7336200018560201b60201c565b620001607fc951d7098b66ba0b8b77265b6e9cf0e187d73125a42bcd0061b09a68be421810336200018560201b60201c565b60006009819055506200017f60086200019b60201b620023cf1760201c565b62000429565b620001978282620001b160201b60201c565b5050565b6001816000016000828254019250508190555050565b620001c38282620002a260201b60201c565b6200029e57600160008084815260200190815260200160002060000160008373ffffffffffffffffffffffffffffffffffffffff1673ffffffffffffffffffffffffffffffffffffffff16815260200190815260200160002060006101000a81548160ff021916908315150217905550620002436200030c60201b60201c565b73ffffffffffffffffffffffffffffffffffffffff168173ffffffffffffffffffffffffffffffffffffffff16837f2f8788117e7eff1d82e926ec794901d17c78024a50270940304540a733656f0d60405160405180910390a45b5050565b600080600084815260200190815260200160002060000160008373ffffffffffffffffffffffffffffffffffffffff1673ffffffffffffffffffffffffffffffffffffffff16815260200190815260200160002060009054906101000a900460ff16905092915050565b600033905090565b8280546200032290620003c4565b90600052602060002090601f01602090048101928262000346576000855562000392565b82601f106200036157805160ff191683800117855562000392565b8280016001018555821562000392579182015b828111156200039157825182559160200191906001019062000374565b5b509050620003a19190620003a5565b5090565b5b80821115620003c0576000816000905550600101620003a6565b5090565b60006002820490506001821680620003dd57607f821691505b60208210811415620003f457620003f3620003fa565b5b50919050565b7f4e487b7100000000000000000000000000000000000000000000000000000000600052602260045260246000fd5b615e4880620004396000396000f3fe608060405234801561001057600080fd5b50600436106102065760003560e01c806370a082311161011a578063b88d4fde116100ad578063e18ac8ec1161007c578063e18ac8ec14610628578063e884d89a14610659578063e985e9c514610675578063ee3eb78c146106a5578063fe8e56a5146106d557610206565b8063b88d4fde146105a4578063c87b56dd146105c0578063d547741f146105f0578063dbb19a1c1461060c57610206565b8063a217fddf116100e9578063a217fddf1461051e578063a22cb4651461053c578063b1ae5ac314610558578063b2ed6a6e1461057457610206565b806370a082311461048257806391d14854146104b257806395d89b41146104e25780639b0462241461050057610206565b8063248a9ca31161019d5780633ba2a95c1161016c5780633ba2a95c146103b35780633c14c257146103e357806342842e0e146104015780636352211e1461041d578063663b3e221461044d57610206565b8063248a9ca31461032d5780632f2ff15d1461035d57806332865da61461037957806336568abe1461039757610206565b8063095ea7b3116101d9578063095ea7b3146102a75780630f9c774d146102c35780631f5ddb4f146102f357806323b872dd1461031157610206565b806301ffc9a71461020b5780630554bf211461023b57806306fdde0314610259578063081812fc14610277575b600080fd5b6102256004803603810190610220919061407a565b610705565b6040516102329190615467565b60405180910390f35b610243610717565b6040516102509190615482565b60405180910390f35b61026161073b565b60405161026e919061549d565b60405180910390f35b610291600480360381019061028c9190614133565b6107cd565b60405161029e919061537e565b60405180910390f35b6102c160048036038101906102bc9190613fd9565b610852565b005b6102dd60048036038101906102d89190614133565b61096a565b6040516102ea919061575f565b60405180910390f35b6102fb61098e565b604051610308919061540e565b60405180910390f35b61032b60048036038101906103269190613ed3565b610c71565b005b61034760048036038101906103429190614015565b610cd1565b6040516103549190615482565b60405180910390f35b6103776004803603810190610372919061403e565b610cf0565b005b610381610d19565b60405161038e9190615482565b60405180910390f35b6103b160048036038101906103ac919061403e565b610d3d565b005b6103cd60048036038101906103c891906140cc565b610dc0565b6040516103da919061575f565b60405180910390f35b6103eb611086565b6040516103f8919061575f565b60405180910390f35b61041b60048036038101906104169190613ed3565b61108c565b005b61043760048036038101906104329190614133565b6110ac565b604051610444919061537e565b60405180910390f35b61046760048036038101906104629190614133565b61115e565b6040516104799695949392919061577a565b60405180910390f35b61049c60048036038101906104979190613e6e565b61124f565b6040516104a9919061575f565b60405180910390f35b6104cc60048036038101906104c7919061403e565b611307565b6040516104d99190615467565b60405180910390f35b6104ea611371565b6040516104f7919061549d565b60405180910390f35b610508611403565b604051610515919061549d565b60405180910390f35b610526611491565b6040516105339190615482565b60405180910390f35b61055660048036038101906105519190613f9d565b611498565b005b610572600480360381019061056d9190614133565b611619565b005b61058e60048036038101906105899190614133565b61165e565b60405161059b919061575f565b60405180910390f35b6105be60048036038101906105b99190613f22565b611ace565b005b6105da60048036038101906105d59190614133565b611b30565b6040516105e7919061549d565b60405180910390f35b61060a6004803603810190610605919061403e565b611c82565b005b61062660048036038101906106219190614133565b611cab565b005b610642600480360381019061063d9190613e6e565b611cf0565b604051610650929190615430565b60405180910390f35b610673600480360381019061066e9190613e6e565b6121dd565b005b61068f600480360381019061068a9190613e97565b61220a565b60405161069c9190615467565b60405180910390f35b6106bf60048036038101906106ba9190613fd9565b61229e565b6040516106cc919061575f565b60405180910390f35b6106ef60048036038101906106ea9190613fd9565b6122c3565b6040516106fc9190615467565b60405180910390f35b6000610710826123e5565b9050919050565b7f75f5675427bbe3fbe92f71e7f066dc995ebed7899f07716e842213d0a25955f781565b60606001805461074a90615b72565b80601f016020809104026020016040519081016040528092919081815260200182805461077690615b72565b80156107c35780601f10610798576101008083540402835291602001916107c3565b820191906000526020600020905b8154815290600101906020018083116107a657829003601f168201915b5050505050905090565b60006107d8826124c7565b610817576040517f08c379a000000000000000000000000000000000000000000000000000000000815260040161080e9061565f565b60405180910390fd5b6005600083815260200190815260200160002060009054906101000a900473ffffffffffffffffffffffffffffffffffffffff169050919050565b600061085d826110ac565b90508073ffffffffffffffffffffffffffffffffffffffff168373ffffffffffffffffffffffffffffffffffffffff1614156108ce576040517f08c379a00000000000000000000000000000000000000000000000000000000081526004016108c5906156df565b60405180910390fd5b8073ffffffffffffffffffffffffffffffffffffffff166108ed612533565b73ffffffffffffffffffffffffffffffffffffffff16148061091c575061091b81610916612533565b61220a565b5b61095b576040517f08c379a00000000000000000000000000000000000000000000000000000000081526004016109529061559f565b60405180910390fd5b610965838361253b565b505050565b600a818154811061097a57600080fd5b906000526020600020016000915090505481565b60606000600a8054905067ffffffffffffffff8111156109d7577f4e487b7100000000000000000000000000000000000000000000000000000000600052604160045260246000fd5b604051908082528060200260200182016040528015610a1057816020015b6109fd613bf9565b8152602001906001900390816109f55790505b50905060005b600a80549050811015610c6957600b6000600a8381548110610a61577f4e487b7100000000000000000000000000000000000000000000000000000000600052603260045260246000fd5b906000526020600020015481526020019081526020016000206040518060c001604052908160008201548152602001600182018054610a9f90615b72565b80601f0160208091040260200160405190810160405280929190818152602001828054610acb90615b72565b8015610b185780601f10610aed57610100808354040283529160200191610b18565b820191906000526020600020905b815481529060010190602001808311610afb57829003601f168201915b505050505081526020016002820160009054906101000a900473ffffffffffffffffffffffffffffffffffffffff1673ffffffffffffffffffffffffffffffffffffffff1673ffffffffffffffffffffffffffffffffffffffff16815260200160038201548152602001600482015481526020016005820160009054906101000a900460ff166002811115610bd6577f4e487b7100000000000000000000000000000000000000000000000000000000600052602160045260246000fd5b6002811115610c0e577f4e487b7100000000000000000000000000000000000000000000000000000000600052602160045260246000fd5b81525050828281518110610c4b577f4e487b7100000000000000000000000000000000000000000000000000000000600052603260045260246000fd5b60200260200101819052508080610c6190615ba4565b915050610a16565b508091505090565b610c82610c7c612533565b826125f4565b610cc1576040517f08c379a0000000000000000000000000000000000000000000000000000000008152600401610cb8906156ff565b60405180910390fd5b610ccc8383836126d2565b505050565b6000806000838152602001908152602001600020600101549050919050565b610cf982610cd1565b610d0a81610d05612533565b61292e565b610d1483836129cb565b505050565b7fc951d7098b66ba0b8b77265b6e9cf0e187d73125a42bcd0061b09a68be42181081565b610d45612533565b73ffffffffffffffffffffffffffffffffffffffff168173ffffffffffffffffffffffffffffffffffffffff1614610db2576040517f08c379a0000000000000000000000000000000000000000000000000000000008152600401610da99061573f565b60405180910390fd5b610dbc8282612aab565b5050565b60007f75f5675427bbe3fbe92f71e7f066dc995ebed7899f07716e842213d0a25955f7610df481610def612533565b61292e565b6000610e01600954612b8c565b33604051602001610e13929190615113565b6040516020818303038152906040528051906020012060001c9050610e36613bf9565b8181600001818152505086816020018190525085816040019073ffffffffffffffffffffffffffffffffffffffff16908173ffffffffffffffffffffffffffffffffffffffff1681525050428160600181815250508481608001818152505060008160a001906002811115610ed4577f4e487b7100000000000000000000000000000000000000000000000000000000600052602160045260246000fd5b90816002811115610f0e577f4e487b7100000000000000000000000000000000000000000000000000000000600052602160045260246000fd5b8152505080600b6000848152602001908152602001600020600082015181600001556020820151816001019080519060200190610f4c929190613c7d565b5060408201518160020160006101000a81548173ffffffffffffffffffffffffffffffffffffffff021916908373ffffffffffffffffffffffffffffffffffffffff160217905550606082015181600301556080820151816004015560a08201518160050160006101000a81548160ff02191690836002811115610ff9577f4e487b7100000000000000000000000000000000000000000000000000000000600052602160045260246000fd5b02179055509050506009600081548092919061101490615ba4565b9190505550600a8290806001815401808255809150506001900390600052602060002001600090919091909150557fb9bb1df26fde5c1295a7ccd167330e5d6cb9df14fe4c3884669a64433cc9e76082604051611071919061575f565b60405180910390a18193505050509392505050565b60095481565b6110a783838360405180602001604052806000815250611ace565b505050565b6000806003600084815260200190815260200160002060009054906101000a900473ffffffffffffffffffffffffffffffffffffffff169050600073ffffffffffffffffffffffffffffffffffffffff168173ffffffffffffffffffffffffffffffffffffffff161415611155576040517f08c379a000000000000000000000000000000000000000000000000000000000815260040161114c906155df565b60405180910390fd5b80915050919050565b600b60205280600052604060002060009150905080600001549080600101805461118790615b72565b80601f01602080910402602001604051908101604052809291908181526020018280546111b390615b72565b80156112005780601f106111d557610100808354040283529160200191611200565b820191906000526020600020905b8154815290600101906020018083116111e357829003601f168201915b5050505050908060020160009054906101000a900473ffffffffffffffffffffffffffffffffffffffff16908060030154908060040154908060050160009054906101000a900460ff16905086565b60008073ffffffffffffffffffffffffffffffffffffffff168273ffffffffffffffffffffffffffffffffffffffff1614156112c0576040517f08c379a00000000000000000000000000000000000000000000000000000000081526004016112b7906155bf565b60405180910390fd5b600460008373ffffffffffffffffffffffffffffffffffffffff1673ffffffffffffffffffffffffffffffffffffffff168152602001908152602001600020549050919050565b600080600084815260200190815260200160002060000160008373ffffffffffffffffffffffffffffffffffffffff1673ffffffffffffffffffffffffffffffffffffffff16815260200190815260200160002060009054906101000a900460ff16905092915050565b60606002805461138090615b72565b80601f01602080910402602001604051908101604052809291908181526020018280546113ac90615b72565b80156113f95780601f106113ce576101008083540402835291602001916113f9565b820191906000526020600020905b8154815290600101906020018083116113dc57829003601f168201915b5050505050905090565b600d805461141090615b72565b80601f016020809104026020016040519081016040528092919081815260200182805461143c90615b72565b80156114895780601f1061145e57610100808354040283529160200191611489565b820191906000526020600020905b81548152906001019060200180831161146c57829003601f168201915b505050505081565b6000801b81565b6114a0612533565b73ffffffffffffffffffffffffffffffffffffffff168273ffffffffffffffffffffffffffffffffffffffff16141561150e576040517f08c379a00000000000000000000000000000000000000000000000000000000081526004016115059061555f565b60405180910390fd5b806006600061151b612533565b73ffffffffffffffffffffffffffffffffffffffff1673ffffffffffffffffffffffffffffffffffffffff16815260200190815260200160002060008473ffffffffffffffffffffffffffffffffffffffff1673ffffffffffffffffffffffffffffffffffffffff16815260200190815260200160002060006101000a81548160ff0219169083151502179055508173ffffffffffffffffffffffffffffffffffffffff166115c8612533565b73ffffffffffffffffffffffffffffffffffffffff167f17307eab39ab6107e8899845ad3d59bd9653f200f220920489ca2b5937696c318360405161160d9190615467565b60405180910390a35050565b611624816002612d39565b7ffbc7ec7458f58e5a17a174e753f4fe61b5c1c33aad27e5529486de7cc150e5d681604051611653919061575f565b60405180910390a150565b6000816000600b60008381526020019081526020016000206000015414156116bb576040517f08c379a00000000000000000000000000000000000000000000000000000000081526004016116b2906154df565b60405180910390fd5b82600160028111156116f6577f4e487b7100000000000000000000000000000000000000000000000000000000600052602160045260246000fd5b600b600083815260200190815260200160002060050160009054906101000a900460ff166002811115611752577f4e487b7100000000000000000000000000000000000000000000000000000000600052602160045260246000fd5b14611792576040517f08c379a00000000000000000000000000000000000000000000000000000000081526004016117899061571f565b60405180910390fd5b8333600015156117a282846122c3565b1515146117e4576040517f08c379a00000000000000000000000000000000000000000000000000000000081526004016117db9061567f565b60405180910390fd5b60006117f06008612e30565b90506000600b60008981526020019081526020016000206040518060c00160405290816000820154815260200160018201805461182c90615b72565b80601f016020809104026020016040519081016040528092919081815260200182805461185890615b72565b80156118a55780601f1061187a576101008083540402835291602001916118a5565b820191906000526020600020905b81548152906001019060200180831161188857829003601f168201915b505050505081526020016002820160009054906101000a900473ffffffffffffffffffffffffffffffffffffffff1673ffffffffffffffffffffffffffffffffffffffff1673ffffffffffffffffffffffffffffffffffffffff16815260200160038201548152602001600482015481526020016005820160009054906101000a900460ff166002811115611963577f4e487b7100000000000000000000000000000000000000000000000000000000600052602160045260246000fd5b600281111561199b577f4e487b7100000000000000000000000000000000000000000000000000000000600052602160045260246000fd5b81525050905060006119ad8233612e3e565b905060006119eb6119bd8b612b8c565b6119c684612ecf565b6040516020016119d7929190615256565b604051602081830303815290604052612ecf565b9050600081604051602001611a009190615322565b6040516020818303038152906040529050611a1b338661308d565b611a2585826130ab565b84600c60003373ffffffffffffffffffffffffffffffffffffffff1673ffffffffffffffffffffffffffffffffffffffff16815260200190815260200160002060008d815260200190815260200160002081905550611a8460086123cf565b7fbec549d3766aa44bae6a3bac326c119d6de9b4947a2cd3f26dfd409e17f687053386604051611ab59291906153e5565b60405180910390a1849950505050505050505050919050565b611adf611ad9612533565b836125f4565b611b1e576040517f08c379a0000000000000000000000000000000000000000000000000000000008152600401611b15906156ff565b60405180910390fd5b611b2a8484848461311f565b50505050565b6060611b3b826124c7565b611b7a576040517f08c379a0000000000000000000000000000000000000000000000000000000008152600401611b719061563f565b60405180910390fd5b6000600760008481526020019081526020016000208054611b9a90615b72565b80601f0160208091040260200160405190810160405280929190818152602001828054611bc690615b72565b8015611c135780601f10611be857610100808354040283529160200191611c13565b820191906000526020600020905b815481529060010190602001808311611bf657829003601f168201915b505050505090506000611c2461317b565b9050600081511415611c3a578192505050611c7d565b600082511115611c6f578082604051602001611c5792919061513b565b60405160208183030381529060405292505050611c7d565b611c7884613192565b925050505b919050565b611c8b82610cd1565b611c9c81611c97612533565b61292e565b611ca68383612aab565b505050565b611cb6816001612d39565b7fa35553243f7d9878c042b3e81143baf48b08c2a2a09a5efce4e2c4615271a3cf81604051611ce5919061575f565b60405180910390a150565b6060806000611cfe8461124f565b905060008167ffffffffffffffff811115611d42577f4e487b7100000000000000000000000000000000000000000000000000000000600052604160045260246000fd5b604051908082528060200260200182016040528015611d7b57816020015b611d68613bf9565b815260200190600190039081611d605790505b50905060008267ffffffffffffffff811115611dc0577f4e487b7100000000000000000000000000000000000000000000000000000000600052604160045260246000fd5b604051908082528060200260200182016040528015611dee5781602001602082028036833780820191505090505b5090506000805b600a805490508110156121cd576000600c60008a73ffffffffffffffffffffffffffffffffffffffff1673ffffffffffffffffffffffffffffffffffffffff1681526020019081526020016000206000600a8481548110611e7f577f4e487b7100000000000000000000000000000000000000000000000000000000600052603260045260246000fd5b9060005260206000200154815260200190815260200160002054146121ba57600b6000600a8381548110611edc577f4e487b7100000000000000000000000000000000000000000000000000000000600052603260045260246000fd5b906000526020600020015481526020019081526020016000206040518060c001604052908160008201548152602001600182018054611f1a90615b72565b80601f0160208091040260200160405190810160405280929190818152602001828054611f4690615b72565b8015611f935780601f10611f6857610100808354040283529160200191611f93565b820191906000526020600020905b815481529060010190602001808311611f7657829003601f168201915b505050505081526020016002820160009054906101000a900473ffffffffffffffffffffffffffffffffffffffff1673ffffffffffffffffffffffffffffffffffffffff1673ffffffffffffffffffffffffffffffffffffffff16815260200160038201548152602001600482015481526020016005820160009054906101000a900460ff166002811115612051577f4e487b7100000000000000000000000000000000000000000000000000000000600052602160045260246000fd5b6002811115612089577f4e487b7100000000000000000000000000000000000000000000000000000000600052602160045260246000fd5b815250508483815181106120c6577f4e487b7100000000000000000000000000000000000000000000000000000000600052603260045260246000fd5b6020026020010181905250600c60008973ffffffffffffffffffffffffffffffffffffffff1673ffffffffffffffffffffffffffffffffffffffff1681526020019081526020016000206000600a838154811061214c577f4e487b7100000000000000000000000000000000000000000000000000000000600052603260045260246000fd5b906000526020600020015481526020019081526020016000205483838151811061219f577f4e487b7100000000000000000000000000000000000000000000000000000000600052603260045260246000fd5b60200260200101818152505081806121b690615ba4565b9250505b80806121c590615ba4565b915050611df5565b5082829550955050505050915091565b6122077f75f5675427bbe3fbe92f71e7f066dc995ebed7899f07716e842213d0a25955f782610cf0565b50565b6000600660008473ffffffffffffffffffffffffffffffffffffffff1673ffffffffffffffffffffffffffffffffffffffff16815260200190815260200160002060008373ffffffffffffffffffffffffffffffffffffffff1673ffffffffffffffffffffffffffffffffffffffff16815260200190815260200160002060009054906101000a900460ff16905092915050565b600c602052816000526040600020602052806000526040600020600091509150505481565b6000816000600b6000838152602001908152602001600020600001541415612320576040517f08c379a0000000000000000000000000000000000000000000000000000000008152600401612317906154df565b60405180910390fd5b600080600c60008773ffffffffffffffffffffffffffffffffffffffff1673ffffffffffffffffffffffffffffffffffffffff16815260200190815260200160002060008681526020019081526020016000205490506000811180156123b9575061238a816110ac565b73ffffffffffffffffffffffffffffffffffffffff168673ffffffffffffffffffffffffffffffffffffffff16145b156123c357600191505b81935050505092915050565b6001816000016000828254019250508190555050565b60007f80ac58cd000000000000000000000000000000000000000000000000000000007bffffffffffffffffffffffffffffffffffffffffffffffffffffffff1916827bffffffffffffffffffffffffffffffffffffffffffffffffffffffff191614806124b057507f5b5e139f000000000000000000000000000000000000000000000000000000007bffffffffffffffffffffffffffffffffffffffffffffffffffffffff1916827bffffffffffffffffffffffffffffffffffffffffffffffffffffffff1916145b806124c057506124bf82613239565b5b9050919050565b60008073ffffffffffffffffffffffffffffffffffffffff166003600084815260200190815260200160002060009054906101000a900473ffffffffffffffffffffffffffffffffffffffff1673ffffffffffffffffffffffffffffffffffffffff1614159050919050565b600033905090565b816005600083815260200190815260200160002060006101000a81548173ffffffffffffffffffffffffffffffffffffffff021916908373ffffffffffffffffffffffffffffffffffffffff160217905550808273ffffffffffffffffffffffffffffffffffffffff166125ae836110ac565b73ffffffffffffffffffffffffffffffffffffffff167f8c5be1e5ebec7d5bd14f71427d1e84f3dd0314c0f7b2291e5b200ac8c7c3b92560405160405180910390a45050565b60006125ff826124c7565b61263e576040517f08c379a00000000000000000000000000000000000000000000000000000000081526004016126359061557f565b60405180910390fd5b6000612649836110ac565b90508073ffffffffffffffffffffffffffffffffffffffff168473ffffffffffffffffffffffffffffffffffffffff1614806126b857508373ffffffffffffffffffffffffffffffffffffffff166126a0846107cd565b73ffffffffffffffffffffffffffffffffffffffff16145b806126c957506126c8818561220a565b5b91505092915050565b8273ffffffffffffffffffffffffffffffffffffffff166126f2826110ac565b73ffffffffffffffffffffffffffffffffffffffff1614612748576040517f08c379a000000000000000000000000000000000000000000000000000000000815260040161273f9061569f565b60405180910390fd5b600073ffffffffffffffffffffffffffffffffffffffff168273ffffffffffffffffffffffffffffffffffffffff1614156127b8576040517f08c379a00000000000000000000000000000000000000000000000000000000081526004016127af9061553f565b60405180910390fd5b6127c38383836132b3565b6127ce60008261253b565b6001600460008573ffffffffffffffffffffffffffffffffffffffff1673ffffffffffffffffffffffffffffffffffffffff168152602001908152602001600020600082825461281e9190615a2f565b925050819055506001600460008473ffffffffffffffffffffffffffffffffffffffff1673ffffffffffffffffffffffffffffffffffffffff1681526020019081526020016000206000828254612875919061594e565b92505081905550816003600083815260200190815260200160002060006101000a81548173ffffffffffffffffffffffffffffffffffffffff021916908373ffffffffffffffffffffffffffffffffffffffff160217905550808273ffffffffffffffffffffffffffffffffffffffff168473ffffffffffffffffffffffffffffffffffffffff167fddf252ad1be2c89b69c2b068fc378daa952ba7f163c4a11628f55a4df523b3ef60405160405180910390a4505050565b6129388282611307565b6129c75761295d8173ffffffffffffffffffffffffffffffffffffffff1660146132b8565b61296b8360001c60206132b8565b60405160200161297c929190615344565b6040516020818303038152906040526040517f08c379a00000000000000000000000000000000000000000000000000000000081526004016129be919061549d565b60405180910390fd5b5050565b6129d58282611307565b612aa757600160008084815260200190815260200160002060000160008373ffffffffffffffffffffffffffffffffffffffff1673ffffffffffffffffffffffffffffffffffffffff16815260200190815260200160002060006101000a81548160ff021916908315150217905550612a4c612533565b73ffffffffffffffffffffffffffffffffffffffff168173ffffffffffffffffffffffffffffffffffffffff16837f2f8788117e7eff1d82e926ec794901d17c78024a50270940304540a733656f0d60405160405180910390a45b5050565b612ab58282611307565b15612b8857600080600084815260200190815260200160002060000160008373ffffffffffffffffffffffffffffffffffffffff1673ffffffffffffffffffffffffffffffffffffffff16815260200190815260200160002060006101000a81548160ff021916908315150217905550612b2d612533565b73ffffffffffffffffffffffffffffffffffffffff168173ffffffffffffffffffffffffffffffffffffffff16837ff6391f5c32d9c69d2a47ea670b442974b53935d1edc7fd64eb21e047a839171b60405160405180910390a45b5050565b60606000821415612bd4576040518060400160405280600181526020017f30000000000000000000000000000000000000000000000000000000000000008152509050612d34565b600082905060005b60008214612c06578080612bef90615ba4565b915050600a82612bff91906159a4565b9150612bdc565b60008167ffffffffffffffff811115612c48577f4e487b7100000000000000000000000000000000000000000000000000000000600052604160045260246000fd5b6040519080825280601f01601f191660200182016040528015612c7a5781602001600182028036833780820191505090505b5090505b60008514612d2d57600182612c939190615a2f565b9150600a85612ca29190615c11565b6030612cae919061594e565b60f81b818381518110612cea577f4e487b7100000000000000000000000000000000000000000000000000000000600052603260045260246000fd5b60200101907effffffffffffffffffffffffffffffffffffffffffffffffffffffffffffff1916908160001a905350600a85612d2691906159a4565b9450612c7e565b8093505050505b919050565b7f75f5675427bbe3fbe92f71e7f066dc995ebed7899f07716e842213d0a25955f7612d6b81612d66612533565b61292e565b826000600b6000838152602001908152602001600020600001541415612dc6576040517f08c379a0000000000000000000000000000000000000000000000000000000008152600401612dbd906154df565b60405180910390fd5b82600b600086815260200190815260200160002060050160006101000a81548160ff02191690836002811115612e25577f4e487b7100000000000000000000000000000000000000000000000000000000600052602160045260246000fd5b021790555050505050565b600081600001549050919050565b60606000612e4b836135b2565b90506000612e588561360c565b90506000612e6586613639565b90506000612e7287613697565b90506000612e7f886136cc565b90506000612e8c89613701565b90506000600d878787878787604051602001612eae979695949392919061515f565b60405160208183030381529060405290508097505050505050505092915050565b60606000825190506000811415612ef85760405180602001604052806000815250915050613088565b60006003600283612f09919061594e565b612f1391906159a4565b6004612f1f91906159d5565b90506000602082612f30919061594e565b67ffffffffffffffff811115612f6f577f4e487b7100000000000000000000000000000000000000000000000000000000600052604160045260246000fd5b6040519080825280601f01601f191660200182016040528015612fa15781602001600182028036833780820191505090505b5090506000604051806060016040528060408152602001615dd3604091399050600181016020830160005b868110156130455760038101905062ffffff818a015116603f8160121c168401518060081b905060ff603f83600c1c1686015116810190508060081b905060ff603f8360061c1686015116810190508060081b905060ff603f831686015116810190508060e01b90508084526004840193505050612fcc565b50600386066001811461305f576002811461306f5761307a565b613d3d60f01b600283035261307a565b603d60f81b60018303525b508484525050819450505050505b919050565b6130a7828260405180602001604052806000815250613736565b5050565b6130b4826124c7565b6130f3576040517f08c379a00000000000000000000000000000000000000000000000000000000081526004016130ea906155ff565b60405180910390fd5b8060076000848152602001908152602001600020908051906020019061311a929190613c7d565b505050565b61312a8484846126d2565b61313684848484613791565b613175576040517f08c379a000000000000000000000000000000000000000000000000000000000815260040161316c906154ff565b60405180910390fd5b50505050565b606060405180602001604052806000815250905090565b606061319d826124c7565b6131dc576040517f08c379a00000000000000000000000000000000000000000000000000000000081526004016131d3906156bf565b60405180910390fd5b60006131e661317b565b905060008151116132065760405180602001604052806000815250613231565b8061321084612b8c565b60405160200161322192919061513b565b6040516020818303038152906040525b915050919050565b60007f7965db0b000000000000000000000000000000000000000000000000000000007bffffffffffffffffffffffffffffffffffffffffffffffffffffffff1916827bffffffffffffffffffffffffffffffffffffffffffffffffffffffff191614806132ac57506132ab82613928565b5b9050919050565b505050565b6060600060028360026132cb91906159d5565b6132d5919061594e565b67ffffffffffffffff811115613314577f4e487b7100000000000000000000000000000000000000000000000000000000600052604160045260246000fd5b6040519080825280601f01601f1916602001820160405280156133465781602001600182028036833780820191505090505b5090507f3000000000000000000000000000000000000000000000000000000000000000816000815181106133a4577f4e487b7100000000000000000000000000000000000000000000000000000000600052603260045260246000fd5b60200101907effffffffffffffffffffffffffffffffffffffffffffffffffffffffffffff1916908160001a9053507f78000000000000000000000000000000000000000000000000000000000000008160018151811061342e577f4e487b7100000000000000000000000000000000000000000000000000000000600052603260045260246000fd5b60200101907effffffffffffffffffffffffffffffffffffffffffffffffffffffffffffff1916908160001a9053506000600184600261346e91906159d5565b613478919061594e565b90505b6001811115613564577f3031323334353637383961626364656600000000000000000000000000000000600f8616601081106134e0577f4e487b7100000000000000000000000000000000000000000000000000000000600052603260045260246000fd5b1a60f81b82828151811061351d577f4e487b7100000000000000000000000000000000000000000000000000000000600052603260045260246000fd5b60200101907effffffffffffffffffffffffffffffffffffffffffffffffffffffffffffff1916908160001a905350600485901c94508061355d90615b48565b905061347b565b50600084146135a8576040517f08c379a000000000000000000000000000000000000000000000000000000000815260040161359f906154bf565b60405180910390fd5b8091505092915050565b60606135e6826040516020016135c891906150f8565b6040516020818303038152906040528051906020012060001c613992565b6040516020016135f691906152c8565b6040516020818303038152906040529050919050565b6060816020015160405160200161362391906151cf565b6040516020818303038152906040529050919050565b6060613671826040015160405160200161365391906150f8565b6040516020818303038152906040528051906020012060001c613992565b60405160200161368191906151fc565b6040516020818303038152906040529050919050565b60606136a68260600151612b8c565b6040516020016136b691906152f5565b6040516020818303038152906040529050919050565b60606136db8260800151612b8c565b6040516020016136eb919061529b565b6040516020818303038152906040529050919050565b60606137108260000151612b8c565b6040516020016137209190615229565b6040516020818303038152906040529050919050565b6137408383613a18565b61374d6000848484613791565b61378c576040517f08c379a0000000000000000000000000000000000000000000000000000000008152600401613783906154ff565b60405180910390fd5b505050565b60006137b28473ffffffffffffffffffffffffffffffffffffffff16613be6565b1561391b578373ffffffffffffffffffffffffffffffffffffffff1663150b7a026137db612533565b8786866040518563ffffffff1660e01b81526004016137fd9493929190615399565b602060405180830381600087803b15801561381757600080fd5b505af192505050801561384857506040513d601f19601f8201168201806040525081019061384591906140a3565b60015b6138cb573d8060008114613878576040519150601f19603f3d011682016040523d82523d6000602084013e61387d565b606091505b506000815114156138c3576040517f08c379a00000000000000000000000000000000000000000000000000000000081526004016138ba906154ff565b60405180910390fd5b805181602001fd5b63150b7a0260e01b7bffffffffffffffffffffffffffffffffffffffffffffffffffffffff1916817bffffffffffffffffffffffffffffffffffffffffffffffffffffffff191614915050613920565b600190505b949350505050565b60007f01ffc9a7000000000000000000000000000000000000000000000000000000007bffffffffffffffffffffffffffffffffffffffffffffffffffffffff1916827bffffffffffffffffffffffffffffffffffffffffffffffffffffffff1916149050919050565b606060008214156139da576040518060400160405280600481526020017f30783030000000000000000000000000000000000000000000000000000000008152509050613a13565b600082905060005b60008214613a045780806139f590615ba4565b915050600882901c91506139e2565b613a0e84826132b8565b925050505b919050565b600073ffffffffffffffffffffffffffffffffffffffff168273ffffffffffffffffffffffffffffffffffffffff161415613a88576040517f08c379a0000000000000000000000000000000000000000000000000000000008152600401613a7f9061561f565b60405180910390fd5b613a91816124c7565b15613ad1576040517f08c379a0000000000000000000000000000000000000000000000000000000008152600401613ac89061551f565b60405180910390fd5b613add600083836132b3565b6001600460008473ffffffffffffffffffffffffffffffffffffffff1673ffffffffffffffffffffffffffffffffffffffff1681526020019081526020016000206000828254613b2d919061594e565b92505081905550816003600083815260200190815260200160002060006101000a81548173ffffffffffffffffffffffffffffffffffffffff021916908373ffffffffffffffffffffffffffffffffffffffff160217905550808273ffffffffffffffffffffffffffffffffffffffff16600073ffffffffffffffffffffffffffffffffffffffff167fddf252ad1be2c89b69c2b068fc378daa952ba7f163c4a11628f55a4df523b3ef60405160405180910390a45050565b600080823b905060008111915050919050565b6040518060c001604052806000815260200160608152602001600073ffffffffffffffffffffffffffffffffffffffff168152602001600081526020016000815260200160006002811115613c77577f4e487b7100000000000000000000000000000000000000000000000000000000600052602160045260246000fd5b81525090565b828054613c8990615b72565b90600052602060002090601f016020900481019282613cab5760008555613cf2565b82601f10613cc457805160ff1916838001178555613cf2565b82800160010185558215613cf2579182015b82811115613cf1578251825591602001919060010190613cd6565b5b509050613cff9190613d03565b5090565b5b80821115613d1c576000816000905550600101613d04565b5090565b6000613d33613d2e84615813565b6157e2565b905082815260208101848484011115613d4b57600080fd5b613d56848285615b06565b509392505050565b6000613d71613d6c84615843565b6157e2565b905082815260208101848484011115613d8957600080fd5b613d94848285615b06565b509392505050565b600081359050613dab81615d5f565b92915050565b600081359050613dc081615d76565b92915050565b600081359050613dd581615d8d565b92915050565b600081359050613dea81615da4565b92915050565b600081519050613dff81615da4565b92915050565b600082601f830112613e1657600080fd5b8135613e26848260208601613d20565b91505092915050565b600082601f830112613e4057600080fd5b8135613e50848260208601613d5e565b91505092915050565b600081359050613e6881615dbb565b92915050565b600060208284031215613e8057600080fd5b6000613e8e84828501613d9c565b91505092915050565b60008060408385031215613eaa57600080fd5b6000613eb885828601613d9c565b9250506020613ec985828601613d9c565b9150509250929050565b600080600060608486031215613ee857600080fd5b6000613ef686828701613d9c565b9350506020613f0786828701613d9c565b9250506040613f1886828701613e59565b9150509250925092565b60008060008060808587031215613f3857600080fd5b6000613f4687828801613d9c565b9450506020613f5787828801613d9c565b9350506040613f6887828801613e59565b925050606085013567ffffffffffffffff811115613f8557600080fd5b613f9187828801613e05565b91505092959194509250565b60008060408385031215613fb057600080fd5b6000613fbe85828601613d9c565b9250506020613fcf85828601613db1565b9150509250929050565b60008060408385031215613fec57600080fd5b6000613ffa85828601613d9c565b925050602061400b85828601613e59565b9150509250929050565b60006020828403121561402757600080fd5b600061403584828501613dc6565b91505092915050565b6000806040838503121561405157600080fd5b600061405f85828601613dc6565b925050602061407085828601613d9c565b9150509250929050565b60006020828403121561408c57600080fd5b600061409a84828501613ddb565b91505092915050565b6000602082840312156140b557600080fd5b60006140c384828501613df0565b91505092915050565b6000806000606084860312156140e157600080fd5b600084013567ffffffffffffffff8111156140fb57600080fd5b61410786828701613e2f565b935050602061411886828701613d9c565b925050604061412986828701613e59565b9150509250925092565b60006020828403121561414557600080fd5b600061415384828501613e59565b91505092915050565b60006141688383615051565b905092915050565b600061417c83836150da565b60208301905092915050565b61419181615a63565b82525050565b6141a081615a63565b82525050565b6141b76141b282615a63565b615bed565b82525050565b60006141c8826158a8565b6141d281856158ee565b9350836020820285016141e485615873565b8060005b858110156142205784840389528151614201858261415c565b945061420c836158d4565b925060208a019950506001810190506141e8565b50829750879550505050505092915050565b600061423d826158b3565b61424781856158ff565b935061425283615883565b8060005b8381101561428357815161426a8882614170565b9750614275836158e1565b925050600181019050614256565b5085935050505092915050565b61429981615a75565b82525050565b6142a881615a81565b82525050565b60006142b9826158be565b6142c38185615910565b93506142d3818560208601615b15565b6142dc81615d2d565b840191505092915050565b6142f081615af4565b82525050565b6142ff81615af4565b82525050565b6000614310826158c9565b61431a8185615921565b935061432a818560208601615b15565b61433381615d2d565b840191505092915050565b6000614349826158c9565b6143538185615932565b9350614363818560208601615b15565b61436c81615d2d565b840191505092915050565b6000614382826158c9565b61438c8185615943565b935061439c818560208601615b15565b80840191505092915050565b600081546143b581615b72565b6143bf8186615943565b945060018216600081146143da57600181146143eb5761441e565b60ff1983168652818601935061441e565b6143f485615893565b60005b83811015614416578154818901526001820191506020810190506143f7565b838801955050505b50505092915050565b6000614434602083615932565b91507f537472696e67733a20686578206c656e67746820696e73756666696369656e746000830152602082019050919050565b6000614474601583615932565b91507f4365727469666963617465206e6f742076616c696400000000000000000000006000830152602082019050919050565b60006144b4603283615932565b91507f4552433732313a207472616e7366657220746f206e6f6e20455243373231526560008301527f63656976657220696d706c656d656e74657200000000000000000000000000006020830152604082019050919050565b600061451a601c83615932565b91507f4552433732313a20746f6b656e20616c7265616479206d696e746564000000006000830152602082019050919050565b600061455a602483615932565b91507f4552433732313a207472616e7366657220746f20746865207a65726f2061646460008301527f72657373000000000000000000000000000000000000000000000000000000006020830152604082019050919050565b60006145c0601983615932565b91507f4552433732313a20617070726f766520746f2063616c6c6572000000000000006000830152602082019050919050565b6000614600602c83615932565b91507f4552433732313a206f70657261746f7220717565727920666f72206e6f6e657860008301527f697374656e7420746f6b656e00000000000000000000000000000000000000006020830152604082019050919050565b6000614666602f83615943565b91507f3c7465787420783d2735252720793d273335252720636c6173733d276261736560008301527f273e436f75727365206e616d653a2000000000000000000000000000000000006020830152602f82019050919050565b60006146cc603883615932565b91507f4552433732313a20617070726f76652063616c6c6572206973206e6f74206f7760008301527f6e6572206e6f7220617070726f76656420666f7220616c6c00000000000000006020830152604082019050919050565b6000614732602a83615932565b91507f4552433732313a2062616c616e636520717565727920666f7220746865207a6560008301527f726f2061646472657373000000000000000000000000000000000000000000006020830152604082019050919050565b6000614798602983615932565b91507f4552433732313a206f776e657220717565727920666f72206e6f6e657869737460008301527f656e7420746f6b656e00000000000000000000000000000000000000000000006020830152604082019050919050565b60006147fe602e83615932565b91507f45524337323155524953746f726167653a2055524920736574206f66206e6f6e60008301527f6578697374656e7420746f6b656e0000000000000000000000000000000000006020830152604082019050919050565b6000614864602c83615943565b91507f3c7465787420783d2735252720793d273330252720636c6173733d276261736560008301527f273e4973737565642042793a00000000000000000000000000000000000000006020830152602c82019050919050565b60006148ca600283615943565b91507f227d0000000000000000000000000000000000000000000000000000000000006000830152600282019050919050565b600061490a602683615943565b91507f3c7465787420783d2735252720793d273530252720636c6173733d276261736560008301527f273e49443a2000000000000000000000000000000000000000000000000000006020830152602682019050919050565b6000614970600783615943565b91507f3c2f746578743e000000000000000000000000000000000000000000000000006000830152600782019050919050565b60006149b0602083615932565b91507f4552433732313a206d696e7420746f20746865207a65726f20616464726573736000830152602082019050919050565b60006149f0601b83615943565b91507f7b226e616d65223a20224e4654206365727469666963617465202300000000006000830152601b82019050919050565b6000614a30603183615932565b91507f45524337323155524953746f726167653a2055524920717565727920666f722060008301527f6e6f6e6578697374656e7420746f6b656e0000000000000000000000000000006020830152604082019050919050565b6000614a96602c83615932565b91507f4552433732313a20617070726f76656420717565727920666f72206e6f6e657860008301527f697374656e7420746f6b656e00000000000000000000000000000000000000006020830152604082019050919050565b6000614afc602283615932565b91507f43616e206e6f74206d696e74207468652063657274696669636174652074776960008301527f63650000000000000000000000000000000000000000000000000000000000006020830152604082019050919050565b6000614b62602e83615943565b91507f3c7465787420783d2735252720793d273435252720636c6173733d276261736560008301527f273e56616c696420646179733a200000000000000000000000000000000000006020830152602e82019050919050565b6000614bc8602c83615943565b91507f3c7465787420783d2735252720793d273235252720636c6173733d276261736560008301527f273e49737375656420546f3a00000000000000000000000000000000000000006020830152602c82019050919050565b6000614c2e602983615932565b91507f4552433732313a207472616e73666572206f6620746f6b656e2074686174206960008301527f73206e6f74206f776e00000000000000000000000000000000000000000000006020830152604082019050919050565b6000614c94602f83615932565b91507f4552433732314d657461646174613a2055524920717565727920666f72206e6f60008301527f6e6578697374656e7420746f6b656e00000000000000000000000000000000006020830152604082019050919050565b6000614cfa602f83615943565b91507f3c7465787420783d2735252720793d273430252720636c6173733d276261736560008301527f273e49737375656420446174653a2000000000000000000000000000000000006020830152602f82019050919050565b6000614d60602183615932565b91507f4552433732313a20617070726f76616c20746f2063757272656e74206f776e6560008301527f72000000000000000000000000000000000000000000000000000000000000006020830152604082019050919050565b6000614dc6601d83615943565b91507f646174613a6170706c69636174696f6e2f6a736f6e3b6261736536342c0000006000830152601d82019050919050565b6000614e06603183615932565b91507f4552433732313a207472616e736665722063616c6c6572206973206e6f74206f60008301527f776e6572206e6f7220617070726f7665640000000000000000000000000000006020830152604082019050919050565b6000614e6c601783615943565b91507f416363657373436f6e74726f6c3a206163636f756e74200000000000000000006000830152601782019050919050565b6000614eac601c83615932565b91507f4365727469666963617465206973206e6f74207075626c6973686564000000006000830152602082019050919050565b6000614eec600683615943565b91507f3c2f7376673e00000000000000000000000000000000000000000000000000006000830152600682019050919050565b6000614f2c605183615943565b91507f222c20226465736372697074696f6e223a20224e465420636f7572736520636560008301527f7274696669636174652e222c2022696d616765223a2022646174613a696d616760208301527f652f7376672b786d6c3b6261736536342c0000000000000000000000000000006040830152605182019050919050565b6000614fb8601183615943565b91507f206973206d697373696e6720726f6c65200000000000000000000000000000006000830152601182019050919050565b6000614ff8602f83615932565b91507f416363657373436f6e74726f6c3a2063616e206f6e6c792072656e6f756e636560008301527f20726f6c657320666f722073656c6600000000000000000000000000000000006020830152604082019050919050565b600060c08301600083015161506960008601826150da565b50602083015184820360208601526150818282614305565b91505060408301516150966040860182614188565b5060608301516150a960608601826150da565b5060808301516150bc60808601826150da565b5060a08301516150cf60a08601826142e7565b508091505092915050565b6150e381615aea565b82525050565b6150f281615aea565b82525050565b600061510482846141a6565b60148201915081905092915050565b600061511f8285614377565b915061512b82846141a6565b6014820191508190509392505050565b60006151478285614377565b91506151538284614377565b91508190509392505050565b600061516b828a6143a8565b91506151778289614377565b91506151838288614377565b915061518f8287614377565b915061519b8286614377565b91506151a78285614377565b91506151b38284614377565b91506151be82614edf565b915081905098975050505050505050565b60006151da82614659565b91506151e68284614377565b91506151f182614963565b915081905092915050565b600061520782614857565b91506152138284614377565b915061521e82614963565b915081905092915050565b6000615234826148fd565b91506152408284614377565b915061524b82614963565b915081905092915050565b6000615261826149e3565b915061526d8285614377565b915061527882614f1f565b91506152848284614377565b915061528f826148bd565b91508190509392505050565b60006152a682614b55565b91506152b28284614377565b91506152bd82614963565b915081905092915050565b60006152d382614bbb565b91506152df8284614377565b91506152ea82614963565b915081905092915050565b600061530082614ced565b915061530c8284614377565b915061531782614963565b915081905092915050565b600061532d82614db9565b91506153398284614377565b915081905092915050565b600061534f82614e5f565b915061535b8285614377565b915061536682614fab565b91506153728284614377565b91508190509392505050565b60006020820190506153936000830184614197565b92915050565b60006080820190506153ae6000830187614197565b6153bb6020830186614197565b6153c860408301856150e9565b81810360608301526153da81846142ae565b905095945050505050565b60006040820190506153fa6000830185614197565b61540760208301846150e9565b9392505050565b6000602082019050818103600083015261542881846141bd565b905092915050565b6000604082019050818103600083015261544a81856141bd565b9050818103602083015261545e8184614232565b90509392505050565b600060208201905061547c6000830184614290565b92915050565b6000602082019050615497600083018461429f565b92915050565b600060208201905081810360008301526154b7818461433e565b905092915050565b600060208201905081810360008301526154d881614427565b9050919050565b600060208201905081810360008301526154f881614467565b9050919050565b60006020820190508181036000830152615518816144a7565b9050919050565b600060208201905081810360008301526155388161450d565b9050919050565b600060208201905081810360008301526155588161454d565b9050919050565b60006020820190508181036000830152615578816145b3565b9050919050565b60006020820190508181036000830152615598816145f3565b9050919050565b600060208201905081810360008301526155b8816146bf565b9050919050565b600060208201905081810360008301526155d881614725565b9050919050565b600060208201905081810360008301526155f88161478b565b9050919050565b60006020820190508181036000830152615618816147f1565b9050919050565b60006020820190508181036000830152615638816149a3565b9050919050565b6000602082019050818103600083015261565881614a23565b9050919050565b6000602082019050818103600083015261567881614a89565b9050919050565b6000602082019050818103600083015261569881614aef565b9050919050565b600060208201905081810360008301526156b881614c21565b9050919050565b600060208201905081810360008301526156d881614c87565b9050919050565b600060208201905081810360008301526156f881614d53565b9050919050565b6000602082019050818103600083015261571881614df9565b9050919050565b6000602082019050818103600083015261573881614e9f565b9050919050565b6000602082019050818103600083015261575881614feb565b9050919050565b600060208201905061577460008301846150e9565b92915050565b600060c08201905061578f60008301896150e9565b81810360208301526157a1818861433e565b90506157b06040830187614197565b6157bd60608301866150e9565b6157ca60808301856150e9565b6157d760a08301846142f6565b979650505050505050565b6000604051905081810181811067ffffffffffffffff8211171561580957615808615cfe565b5b8060405250919050565b600067ffffffffffffffff82111561582e5761582d615cfe565b5b601f19601f8301169050602081019050919050565b600067ffffffffffffffff82111561585e5761585d615cfe565b5b601f19601f8301169050602081019050919050565b6000819050602082019050919050565b6000819050602082019050919050565b60008190508160005260206000209050919050565b600081519050919050565b600081519050919050565b600081519050919050565b600081519050919050565b6000602082019050919050565b6000602082019050919050565b600082825260208201905092915050565b600082825260208201905092915050565b600082825260208201905092915050565b600082825260208201905092915050565b600082825260208201905092915050565b600081905092915050565b600061595982615aea565b915061596483615aea565b9250827fffffffffffffffffffffffffffffffffffffffffffffffffffffffffffffffff0382111561599957615998615c42565b5b828201905092915050565b60006159af82615aea565b91506159ba83615aea565b9250826159ca576159c9615c71565b5b828204905092915050565b60006159e082615aea565b91506159eb83615aea565b9250817fffffffffffffffffffffffffffffffffffffffffffffffffffffffffffffffff0483118215151615615a2457615a23615c42565b5b828202905092915050565b6000615a3a82615aea565b9150615a4583615aea565b925082821015615a5857615a57615c42565b5b828203905092915050565b6000615a6e82615aca565b9050919050565b60008115159050919050565b6000819050919050565b60007fffffffff0000000000000000000000000000000000000000000000000000000082169050919050565b6000819050615ac582615d4b565b919050565b600073ffffffffffffffffffffffffffffffffffffffff82169050919050565b6000819050919050565b6000615aff82615ab7565b9050919050565b82818337600083830152505050565b60005b83811015615b33578082015181840152602081019050615b18565b83811115615b42576000848401525b50505050565b6000615b5382615aea565b91506000821415615b6757615b66615c42565b5b600182039050919050565b60006002820490506001821680615b8a57607f821691505b60208210811415615b9e57615b9d615ccf565b5b50919050565b6000615baf82615aea565b91507fffffffffffffffffffffffffffffffffffffffffffffffffffffffffffffffff821415615be257615be1615c42565b5b600182019050919050565b6000615bf882615bff565b9050919050565b6000615c0a82615d3e565b9050919050565b6000615c1c82615aea565b9150615c2783615aea565b925082615c3757615c36615c71565b5b828206905092915050565b7f4e487b7100000000000000000000000000000000000000000000000000000000600052601160045260246000fd5b7f4e487b7100000000000000000000000000000000000000000000000000000000600052601260045260246000fd5b7f4e487b7100000000000000000000000000000000000000000000000000000000600052602160045260246000fd5b7f4e487b7100000000000000000000000000000000000000000000000000000000600052602260045260246000fd5b7f4e487b7100000000000000000000000000000000000000000000000000000000600052604160045260246000fd5b6000601f19601f8301169050919050565b60008160601b9050919050565b60038110615d5c57615d5b615ca0565b5b50565b615d6881615a63565b8114615d7357600080fd5b50565b615d7f81615a75565b8114615d8a57600080fd5b50565b615d9681615a81565b8114615da157600080fd5b50565b615dad81615a8b565b8114615db857600080fd5b50565b615dc481615aea565b8114615dcf57600080fd5b5056fe4142434445464748494a4b4c4d4e4f505152535455565758595a6162636465666768696a6b6c6d6e6f707172737475767778797a303132333435363738392b2fa2646970667358221220f9db00e3f4d89602fbe02b5d1003293b4ebdb585144db120ba1fb6d2aa79913364736f6c634300080000333c73766720786d6c6e733d27687474703a2f2f7777772e77332e6f72672f323030302f73766727207072657365727665417370656374526174696f3d27784d696e594d696e206d656574272076696577426f783d273020302037353020333530272077696474683d273130302527206865696768743d2731303025273e3c7374796c653e2e62617365207b2066696c6c3a2077686974653b20666f6e742d66616d696c793a202661706f733b436f7572696572204e65772661706f733b2c206d6f6e6f73706163653b20666f6e742d73697a653a20313570783b207d3c2f7374796c653e3c646566733e3c6c696e6561724772616469656e742069643d2761272078313d2730272078323d2730272079313d2730272079323d2731273e3c73746f70206f66667365743d2730272073746f702d636f6c6f723d2723383046272f3e3c73746f70206f66667365743d2731272073746f702d636f6c6f723d2723663430272f3e3c2f6c696e6561724772616469656e743e3c2f646566733e3c7061747465726e2069643d2762272077696474683d27323427206865696768743d27323427207061747465726e556e6974733d277573657253706163654f6e557365273e3c636972636c652066696c6c3d2723666666666666272063783d273132272063793d2731322720723d273132272f3e3c2f7061747465726e3e3c726563742077696474683d273130302527206865696768743d2731303025272066696c6c3d2775726c28236129272f3e3c726563742077696474683d273130302527206865696768743d2731303025272066696c6c3d2775726c28236229272066696c6c2d6f7061636974793d27302e31272f3e3c7465787420783d2735252720793d273135252720636c6173733d2762617365273e4e46542063657274696669636174653c2f746578743e",
  "immutableReferences": {},
  "source": "// SPDX-License-Identifier: MIT\npragma solidity 0.8.0;\n\n// Helper functions OpenZeppelin provides.\nimport \"@openzeppelin/contracts/token/ERC721/extensions/ERC721URIStorage.sol\";\nimport \"@openzeppelin/contracts/access/AccessControl.sol\"; \nimport \"@openzeppelin/contracts/utils/Counters.sol\";\nimport \"@openzeppelin/contracts/utils/Strings.sol\";\n\n// import the helper functions from the contract Base64 contract library.\nimport { Base64 } from \"./utils/Base64.sol\";\n\n/// @title Contract for deliver on-chain NFT certificates\n/// @author Juan Benitez\n/// @notice Allows a user to obtain NFT certificates for courses or skills.\n/// @dev NFT data is saved fully on-chain, inherits from ERC721URIStorage (ERC721 OpenZeppelin NTF)\ncontract Certification is AccessControl, ERC721URIStorage{\n\n  /// @dev Using counters from OpenZeppelin\n  using Counters for Counters.Counter;\n  Counters.Counter private _tokenIds;\n\n  /// @dev Define access roles, using AccessControl contract (OpenZeppelin)\n  bytes32 public constant TUTOR = keccak256(\"TUTOR\");\n  bytes32 public constant STUDENT = keccak256(\"STUDENT\");\n\n  /// @notice Define certificates statuses\n  /// @dev Only Published status allow to mint\n  enum Status {Draft, Published, Closed}\n\n  /// @dev Define certificate struct\n  struct Certificate{\n    uint256 id;\n    string  title;\n    address issuedBy;\n    uint256 issuedDate;\n    uint256 validDays;\n    Status  status;\n  }\n\n  /// @dev Number of certificates created\n  uint256 public certificatesCreated;\n\n  /// @dev Array of certificates Ids\n  uint256[] public certificateIds;\n\n  /// @dev Mapping of certificates, from certificate id => certificate struct\n  mapping(uint256 => Certificate) public certificates;\n\n  /// @dev A mapping from student address => certificate IDs student is holding => NFT token id minted.\n  mapping(address => mapping(uint256 => uint256)) public certificatesHolders;\n\n  /// @dev  This is our SVG code for the NFT certificate.\n  string public svgHeadCode = \"<svg xmlns='http://www.w3.org/2000/svg' preserveAspectRatio='xMinYMin meet' viewBox='0 0 750 350' width='100%' height='100%'><style>.base { fill: white; font-family: &apos;Courier New&apos;, monospace; font-size: 15px; }</style><defs><linearGradient id='a' x1='0' x2='0' y1='0' y2='1'><stop offset='0' stop-color='#80F'/><stop offset='1' stop-color='#f40'/></linearGradient></defs><pattern id='b' width='24' height='24' patternUnits='userSpaceOnUse'><circle fill='#ffffff' cx='12' cy='12' r='12'/></pattern><rect width='100%' height='100%' fill='url(#a)'/><rect width='100%' height='100%' fill='url(#b)' fill-opacity='0.1'/><text x='5%' y='15%' class='base'>NFT certificate</text>\";\n\n  // ---------------------------------------------\n  // --------- Events ----------------------------\n  // ---------------------------------------------\n  event CertificateCreated(uint256 certificateId);\n  event NewCertificateNFTMinted(address student, uint256 certificateId);\n  //event RegisteredNewTutor(address newTutor);\n  event CertificatePublished(uint256 certificateId);\n  event CertificateClosed(uint256 certificateId);\n\n  // ---------------------------------------------\n  // --------- Modifiers -------------------------\n  // ---------------------------------------------\n  modifier certificateExists(uint256 _certificateId)\n  {\n    require(certificates[_certificateId].id != 0, \"Certificate not valid\" );\n    _;\n  }\n\n  modifier isPublished(uint256 _certificateId)\n  {\n    require(certificates[_certificateId].status == Status.Published, \"Certificate is not published\");\n    _;\n  }\n\n  modifier notHolded(uint256 _certificateId, address _student)\n  {\n    require(verifyCertificateHolder(_student, _certificateId) == false, \"Can not mint the certificate twice\");\n    _;\n  }\n\n  // ---------------------------------------------\n  // --------- Contract start --------------------\n  // ---------------------------------------------\n \n  /// @notice Constrcutor's contract \n  constructor() ERC721(\"Certificate NFT\", \"CERT\"){\n    // Grant the contract deployer the default admin role: it will be able\n    // to grant and revoke any roles\n    _setupRole(DEFAULT_ADMIN_ROLE, msg.sender);\n    _setupRole(TUTOR, msg.sender);\n    _setupRole(STUDENT, msg.sender);\n    certificatesCreated = 0;\n    // Increment the counter for token, so it starts in 1.\n    _tokenIds.increment();\n  }\n\n  /// @notice Create a new certificate\n  /// @param _title A title for the certificate\n  /// @param _issuedBy Address of the certificate's issuer\n  /// @param _validDays Amount of days the certificate is valid\n  /// @return The generated certificate ID (number)\n  /// @dev Only role TUTOR is able to create certificates. \n  /// The certificate ID is a number generated from: the global counter certificatesCreated and the user address.\n  function createCertificate(\n    string memory _title,\n    address _issuedBy,\n    uint256 _validDays\n    ) public\n    onlyRole(TUTOR)\n    returns(uint256)\n  {\n    uint256 certificateId = uint256(keccak256(abi.encodePacked(Strings.toString(certificatesCreated), msg.sender)));\n    Certificate memory certificate;\n    \n    certificate.id         = certificateId;\n    certificate.title      = _title;\n    certificate.issuedBy   = _issuedBy;\n    certificate.issuedDate = block.timestamp;\n    certificate.validDays  = _validDays;\n    certificate.status     = Status.Draft;\n    \n    certificates[certificateId] = certificate;\n    certificatesCreated++;\n\n    certificateIds.push(certificateId);\n\n    emit CertificateCreated(certificateId);\n    \n    return certificateId;\n  }\n\n  /// @notice Fetches all certificates.\n  /// @return An array containing all certificates created.\n  function getCertificates() public view returns(Certificate[] memory)\n  {\n    Certificate[] memory resultCertificates = new Certificate[](certificateIds.length);\n\n    for(uint i=0; i < certificateIds.length; i++){\n      resultCertificates[i] = certificates[certificateIds[i]];\n    }\n\n    return resultCertificates;\n  }\n\n  /// @notice Fetches the certificates owned by a user\n  /// @param _holder The address of the holder/student\n  /// @dev Returns the certificate data plus the NFT token Ids\n  /// @return An array of data certificates owned by the user and the NFT tokens ID for them\n  function getCertificatesByHolder(address _holder) public view returns(Certificate[] memory, uint256[] memory)\n  {\n    uint totalCertificates = balanceOf(_holder);\n    Certificate[] memory resultCertificates = new Certificate[](totalCertificates);\n    uint256[] memory tokens = new uint256[](totalCertificates);\n    uint idx = 0;\n\n    for(uint i=0; i < certificateIds.length; i++){\n      if(certificatesHolders[_holder][certificateIds[i]] != 0){ // if != 0 user owns a token\n        resultCertificates[idx] = certificates[certificateIds[i]];\n        tokens[idx] = certificatesHolders[_holder][certificateIds[i]];\n        idx++;\n      }\n    }\n    return (resultCertificates, tokens);\n  }\n\n  \n  // ---------------------------------------------  \n  // -------- Admin functions --------------------\n  // ---------------------------------------------\n\n  /// @notice Register a new TUTOR user\n  /// @dev Only ADMINs are allowed to register new TUTORS\n  function registerTutor(address _newTutor) public\n  {\n    grantRole(TUTOR, _newTutor);\n  }\n\n  /// @notice Publish a certificate, this status allows to mint the certificate\n  /// @param _certificateId the certificate ID we want to publish\n  function publishCertificate(uint256 _certificateId) public\n  {\n    _setCertificateStatus(_certificateId, Status.Published);\n    emit CertificatePublished(_certificateId);\n  }\n\n  /// @notice Close a certificate, this status does not allow to mint the certificate\n  /// @param _certificateId the certificate ID we want to close\n  function closeCertificate(uint256 _certificateId) public \n  {\n    _setCertificateStatus(_certificateId, Status.Closed);\n    emit CertificateClosed(_certificateId);\n  }\n\n  /// @notice Change a certificate stauts\n  /// @param _certificateId the certificate ID we want to close\n  /// @param _status the new status\n  /// @dev only TUTOR role is allowed to change a certificate's status; also the certificate must exists.\n  function _setCertificateStatus(uint256 _certificateId, Status _status) private\n    onlyRole(TUTOR)\n    certificateExists(_certificateId)\n  {\n    certificates[_certificateId].status = _status;\n  }\n\n  // ---------------------------------------------  \n  // -------- Utility SVG functions --------------\n  // ---------------------------------------------\n\n  function courseIssuedToSVGText(address _student) private pure returns (string memory)\n  {\n    return string(\n      abi.encodePacked(\n        \"<text x='5%' y='25%' class='base'>Issued To:\", \n        Strings.toHexString(uint256(keccak256(abi.encodePacked(_student)))),\n        \"</text>\"\n      )\n    );\n  }\n\n  function courseIssueBySVGText(Certificate memory _certificate) private pure returns (string memory)\n  {\n    return string(\n      abi.encodePacked(\n        \"<text x='5%' y='30%' class='base'>Issued By:\",\n        Strings.toHexString(uint256(keccak256(abi.encodePacked(_certificate.issuedBy)))),\n        \"</text>\"\n      )\n    );\n  }\n\n  function courseNameSVGText(Certificate memory _certificate) private pure returns (string memory)\n  {\n    return string(abi.encodePacked(\"<text x='5%' y='35%' class='base'>Course name: \", _certificate.title, \"</text>\"));\n  }\n\n  function courseIssueDateSVGText(Certificate memory _certificate) private pure returns (string memory)\n  {\n    return string(abi.encodePacked(\"<text x='5%' y='40%' class='base'>Issued Date: \", Strings.toString(_certificate.issuedDate), \"</text>\"));\n  }\n\n  function courseValidDaysSVGText(Certificate memory _certificate) private pure returns (string memory)\n  {\n    return string(abi.encodePacked(\"<text x='5%' y='45%' class='base'>Valid days: \", Strings.toString(_certificate.validDays), \"</text>\"));\n  }\n  \n  function courseIdSVGText(Certificate memory _certificate) private pure returns (string memory)\n  {\n    return string(abi.encodePacked(\"<text x='5%' y='50%' class='base'>ID: \", Strings.toString(_certificate.id), \"</text>\"));\n  }\n\n  /// @notice Create the SVG data for the NFT certificate\n  /// @param _certificate the certificate ID\n  /// @param _student address of the student\n  /// @dev generate a SVG code that would be used in the token URI\n  function createSVG(Certificate memory _certificate, address _student) private view returns(string memory){\n    string memory courseIssuedToSVG  = courseIssuedToSVGText(_student);\n    string memory courseNameSVG      = courseNameSVGText(_certificate);\n    string memory courseIssueBySVG   = courseIssueBySVGText(_certificate);\n    string memory courseIssueDateSVG = courseIssueDateSVGText(_certificate);\n    string memory courseValidDaysSVG = courseValidDaysSVGText(_certificate);\n    string memory courseIdSVG        = courseIdSVGText(_certificate);\n\n    // I concatenate it all together, and then close the <text> and <svg> tags.\n    string memory finalSVGCode = string(\n      abi.encodePacked(\n        svgHeadCode,\n        courseIssuedToSVG,\n        courseNameSVG,\n        courseIssueBySVG,\n        courseIssueDateSVG,\n        courseValidDaysSVG,\n        courseIdSVG,\n        \"</svg>\"\n      )\n    );\n    return finalSVGCode;\n  }\n\n  // ---------------------------------------------  \n  // -------- Mint certificate function ---------\n  // ---------------------------------------------\n\n  /// @notice Mint the NFT certificate\n  /// @param _certificateId the certificate ID we want to mint\n  /// @dev Mint the NFT only if cetificate exists, is published and was not previously minted by the student\n  /// @return the minted token ID\n  function mintCertificateNFT(uint256 _certificateId) public\n      certificateExists(_certificateId)\n      isPublished(_certificateId)\n      notHolded(_certificateId, msg.sender)\n      returns(uint256)\n  {\n     // Get the current tokenId, this starts at 1.\n    uint256 newTokenId = _tokenIds.current();\n\n    Certificate memory certificate = certificates[_certificateId];\n\n    string memory finalSVGCode = createSVG(certificate, msg.sender);\n        \n    // Get all the JSON metadata + SVG code in place and base64 encode it.\n    string memory json = Base64.encode(\n        bytes(\n            string(\n                abi.encodePacked(\n                    '{\"name\": \"NFT certificate #',\n                    // We set the title of our NFT as the generated word.\n                    Strings.toString(_certificateId),\n                    '\", \"description\": \"NFT course certificate.\", \"image\": \"data:image/svg+xml;base64,',\n                    // We add data:image/svg+xml;base64 and then append our base64 encode our svg.\n                    Base64.encode(bytes(finalSVGCode)),\n                    '\"}'\n                )\n            )\n        )\n    );\n\n    // prepend data:application/json;base64, to our data.\n    string memory finalTokenUri = string(\n        abi.encodePacked(\"data:application/json;base64,\", json)\n    );\n\n     // mint the NFT to the sender using msg.sender.\n    _safeMint(msg.sender, newTokenId);\n\n    // Update token uri\n    _setTokenURI(newTokenId, finalTokenUri);\n\n    //update new student's certificate\n    certificatesHolders[msg.sender][_certificateId] = newTokenId;\n\n    // Increment the counter for when the next NFT is minted.\n    _tokenIds.increment();\n    \n    emit NewCertificateNFTMinted(msg.sender, newTokenId);\n\n    return newTokenId;\n  }\n\n  /// @notice Allows anyone to verificate if a student is holding a certificate\n  /// @dev Verificate the onwerhsip of the NTF as token plus the existence of the record in the contract.\n  /// @param _student The wallet address of the student to be verified.\n  /// @param _certificateId The certificate Id we want to verify.\n  /// @return The student owns the certificate or not.\n  function verifyCertificateHolder(address _student, uint256 _certificateId) public view \n    certificateExists(_certificateId)\n    returns(bool)\n  {\n    bool hasCertificate = false;\n    uint256 mintedTokenId = certificatesHolders[_student][_certificateId];\n    \n    if(mintedTokenId > 0 && _student == ownerOf(mintedTokenId)){\n      hasCertificate = true;\n    }\n    return hasCertificate;\n  }\n\n  // ---------------------------------------------\n  // -------- required by Solidity ---------------\n  function supportsInterface(bytes4 interfaceId)\n      public\n      view\n      override(ERC721, AccessControl)\n      returns (bool)\n  {\n      return super.supportsInterface(interfaceId);\n  }\n}\n",
  "sourcePath": "/home/juan/Blockchain-Proyectos/Consensys-bootcamp/blockchain-developer-bootcamp-final-project/contracts/Certification.sol",
  "compiler": {
    "name": "solc",
    "version": "0.8.0+commit.c7dfd78e.Emscripten.clang"
  },
  "schemaVersion": "3.4.3",
  "updatedAt": "2021-11-28T17:39:50.730Z",
  "networkType": "ethereum",
  "devdoc": {
    "author": "Juan Benitez",
    "details": "NFT data is saved fully on-chain, inherits from ERC721URIStorage (ERC721 OpenZeppelin NTF)",
    "kind": "dev",
    "methods": {
      "approve(address,uint256)": {
        "details": "See {IERC721-approve}."
      },
      "balanceOf(address)": {
        "details": "See {IERC721-balanceOf}."
      },
      "closeCertificate(uint256)": {
        "params": {
          "_certificateId": "the certificate ID we want to close"
        }
      },
      "createCertificate(string,address,uint256)": {
        "details": "Only role TUTOR is able to create certificates.  The certificate ID is a number generated from: the global counter certificatesCreated and the user address.",
        "params": {
          "_issuedBy": "Address of the certificate's issuer",
          "_title": "A title for the certificate",
          "_validDays": "Amount of days the certificate is valid"
        },
        "returns": {
          "_0": "The generated certificate ID (number)"
        }
      },
      "getApproved(uint256)": {
        "details": "See {IERC721-getApproved}."
      },
      "getCertificates()": {
        "returns": {
          "_0": "An array containing all certificates created."
        }
      },
      "getCertificatesByHolder(address)": {
        "details": "Returns the certificate data plus the NFT token Ids",
        "params": {
          "_holder": "The address of the holder/student"
        },
        "returns": {
          "_0": "An array of data certificates owned by the user and the NFT tokens ID for them"
        }
      },
      "getRoleAdmin(bytes32)": {
        "details": "Returns the admin role that controls `role`. See {grantRole} and {revokeRole}. To change a role's admin, use {_setRoleAdmin}."
      },
      "grantRole(bytes32,address)": {
        "details": "Grants `role` to `account`. If `account` had not been already granted `role`, emits a {RoleGranted} event. Requirements: - the caller must have ``role``'s admin role."
      },
      "hasRole(bytes32,address)": {
        "details": "Returns `true` if `account` has been granted `role`."
      },
      "isApprovedForAll(address,address)": {
        "details": "See {IERC721-isApprovedForAll}."
      },
      "mintCertificateNFT(uint256)": {
        "details": "Mint the NFT only if cetificate exists, is published and was not previously minted by the student",
        "params": {
          "_certificateId": "the certificate ID we want to mint"
        },
        "returns": {
          "_0": "the minted token ID"
        }
      },
      "name()": {
        "details": "See {IERC721Metadata-name}."
      },
      "ownerOf(uint256)": {
        "details": "See {IERC721-ownerOf}."
      },
      "publishCertificate(uint256)": {
        "params": {
          "_certificateId": "the certificate ID we want to publish"
        }
      },
      "registerTutor(address)": {
        "details": "Only ADMINs are allowed to register new TUTORS"
      },
      "renounceRole(bytes32,address)": {
        "details": "Revokes `role` from the calling account. Roles are often managed via {grantRole} and {revokeRole}: this function's purpose is to provide a mechanism for accounts to lose their privileges if they are compromised (such as when a trusted device is misplaced). If the calling account had been granted `role`, emits a {RoleRevoked} event. Requirements: - the caller must be `account`."
      },
      "revokeRole(bytes32,address)": {
        "details": "Revokes `role` from `account`. If `account` had been granted `role`, emits a {RoleRevoked} event. Requirements: - the caller must have ``role``'s admin role."
      },
      "safeTransferFrom(address,address,uint256)": {
        "details": "See {IERC721-safeTransferFrom}."
      },
      "safeTransferFrom(address,address,uint256,bytes)": {
        "details": "See {IERC721-safeTransferFrom}."
      },
      "setApprovalForAll(address,bool)": {
        "details": "See {IERC721-setApprovalForAll}."
      },
      "symbol()": {
        "details": "See {IERC721Metadata-symbol}."
      },
      "tokenURI(uint256)": {
        "details": "See {IERC721Metadata-tokenURI}."
      },
      "transferFrom(address,address,uint256)": {
        "details": "See {IERC721-transferFrom}."
      },
      "verifyCertificateHolder(address,uint256)": {
        "details": "Verificate the onwerhsip of the NTF as token plus the existence of the record in the contract.",
        "params": {
          "_certificateId": "The certificate Id we want to verify.",
          "_student": "The wallet address of the student to be verified."
        },
        "returns": {
          "_0": "The student owns the certificate or not."
        }
      }
    },
    "stateVariables": {
      "TUTOR": {
        "details": "Define access roles, using AccessControl contract (OpenZeppelin)"
      },
      "certificateIds": {
        "details": "Array of certificates Ids"
      },
      "certificates": {
        "details": "Mapping of certificates, from certificate id => certificate struct"
      },
      "certificatesCreated": {
        "details": "Number of certificates created"
      },
      "certificatesHolders": {
        "details": "A mapping from student address => certificate IDs student is holding => NFT token id minted."
      },
      "svgHeadCode": {
        "details": "This is our SVG code for the NFT certificate."
      }
    },
    "title": "Contract for deliver on-chain NFT certificates",
    "version": 1
  },
  "userdoc": {
    "kind": "user",
    "methods": {
      "closeCertificate(uint256)": {
        "notice": "Close a certificate, this status does not allow to mint the certificate"
      },
      "constructor": {
        "notice": "Constrcutor's contract "
      },
      "createCertificate(string,address,uint256)": {
        "notice": "Create a new certificate"
      },
      "getCertificates()": {
        "notice": "Fetches all certificates."
      },
      "getCertificatesByHolder(address)": {
        "notice": "Fetches the certificates owned by a user"
      },
      "mintCertificateNFT(uint256)": {
        "notice": "Mint the NFT certificate"
      },
      "publishCertificate(uint256)": {
        "notice": "Publish a certificate, this status allows to mint the certificate"
      },
      "registerTutor(address)": {
        "notice": "Register a new TUTOR user"
      },
      "verifyCertificateHolder(address,uint256)": {
        "notice": "Allows anyone to verificate if a student is holding a certificate"
      }
    },
    "notice": "Allows a user to obtain NFT certificates for courses or skills.",
    "version": 1
  }
}